:100000000C942A000C9447000C9447000C94470071
:100010000C9447000C9447000C9447000C94470044
:100020000C9447000C9447000C9447000C94470034
:100030000C946B090C9447000C9447000C944700F7
:100040000C94B8110C9447000C9447000C94470092
:100050000C94470011241FBECFE5D8E0DEBFCDBF12
:1000600011E0A0E6B0E0E2E7F5E402C005900D92F1
:10007000A839B107D9F711E0A8E9B1E001C01D9294
:10008000A73AB107E1F70E9422220C94B7220C9400
:100090000000EF92FF920F931F937B018C0120E0F1
:1000A00030E040E05FE40E94F50388238CF0C80153
:1000B000B70120E030E040E05FE40E94C1010E940F
:1000C00055049B01AC01205030404040504806C0D0
:1000D000C801B7010E9455049B01AC01B901CA01D6
:1000E0001F910F91FF90EF900895A0E0B0E0EBE733
:1000F000F0E00C948022DC012B01FA019C919230FB
:1001000008F439C1EB018881823008F433C194309E
:1001100069F4843009F02FC111969C91119789815F
:10012000981709F428C1A0E6B0E025C1843009F48D
:1001300021C18230A9F4923009F01DC19A01AD01AC
:1001400088E0EA010990AE01E90109929E0181501F
:10015000C1F7E201898111969C918923818308C1AD
:10016000923009F407C112962D903C901397EB0141
:100170008A819B811496AD90BD90CD90DC901797AD
:10018000EC80FD800E811F819101281B390BB90184
:1001900037FF04C066277727621B730B6032710537
:1001A0000CF061C0121613066CF537014801062EDB
:1001B00004C096948794779467940A94D2F721E0C8
:1001C00030E040E050E004C0220F331F441F551FB1
:1001D0006A95D2F721503040404050402E213F21B7
:1001E00040235123211531054105510521F021E01E
:1001F00030E040E050E079018A01E628F72808293C
:1002000019293CC0232BD1F1260E371E350146019A
:10021000062E04C096948794779467940A94D2F734
:1002200021E030E040E050E004C0220F331F441FC3
:10023000551F6A95D2F721503040404050402A2146
:100240003B214C215D21211531054105510521F04E
:1002500021E030E040E050E059016A01A628B728CB
:10026000C828D9280BC0821593052CF01C01AA249C
:10027000BB24650103C0EE24FF24870111969C91E5
:10028000D20111968C91981709F445C0992339F041
:10029000A80197012A193B094C095D0906C0A6016E
:1002A00095012E193F09400B510B57FD08C01182D3
:1002B0003382228224833583468357831DC081E0A5
:1002C00081833382228288279927DC01821B930B4A
:1002D000A40BB50B84839583A683B7830DC0220F2F
:1002E000331F441F551F24833583468357838281E0
:1002F000938101979383828324813581468157813D
:10030000DA01C9010197A109B1098F5F9F4FAF4F72
:10031000BF4328F30BC0918333822282EA0CFB1C7B
:100320000C1D1D1DE482F5820683178383E0808304
:10033000248135814681578157FF1AC0C901AA27F8
:1003400097FDA095BA2F81709070A070B0705695EF
:10035000479537952795822B932BA42BB52B848318
:100360009583A683B7838281938101969383828349
:10037000DF0101C0D201CD01CDB7DEB7E2E10C94BF
:100380009C22A0E2B0E0E7ECF1E00C948C226983BF
:100390007A838B839C832D833E834F835887E9E048
:1003A000EE2EF12CEC0EFD1ECE010196B7010E943F
:1003B00046068E010F5E1F4FCE010596B8010E94C2
:1003C00046068A8991E089278A8BC701B801AE0168
:1003D000475E5F4F0E9475000E947105A096E6E09F
:1003E0000C94A822A0E2B0E0E8EFF1E00C948C229B
:1003F00069837A838B839C832D833E834F835887C5
:10040000F9E0EF2EF12CEC0EFD1ECE010196B701A6
:100410000E9446068E010F5E1F4FCE010596B80161
:100420000E944606C701B801AE01475E5F4F0E94B9
:1004300075000E947105A096E6E00C94A822A0E247
:10044000B0E0E5E2F2E00C94802269837A838B834A
:100450009C832D833E834F835887CE010196BE0136
:10046000675F7F4F0E944606CE010596BE016F5E14
:100470007F4F0E9446069985923088F089898230A4
:10048000C8F0943019F4823051F404C0843029F457
:10049000923081F480E690E0C6C0923049F420E0CA
:1004A0009A858A89981321E02A87CE010996BBC0D4
:1004B000823049F420E09A858A89981321E02A8BBA
:1004C000CE014196B0C02D843E844F8458886D88FB
:1004D0007E888F88988CEE24FF248701AA24BB2471
:1004E000650140E050E060E070E0E0E0F0E0C10174
:1004F00081709070892BE9F0E60CF71C081D191D1E
:100500009A01AB012A0D3B1D4C1D5D1D80E090E062
:10051000A0E0B0E0E614F7040805190520F481E036
:1005200090E0A0E0B0E0BA01A901480F591F6A1F8E
:100530007B1FAA0CBB1CCC1CDD1C97FE08C081E0F5
:1005400090E0A0E0B0E0A82AB92ACA2ADB2A3196B6
:10055000E032F10549F0660C771C881C991C569412
:10056000479437942794C3CFFA85EA892B893C892D
:100570008B859C85280F391F2E5F3F4F17C0CA01FE
:1005800081709070892B61F016950795F794E79428
:1005900080E090E0A0E0B0E8E82AF92A0A2B1B2BC3
:1005A00076956795579547952F5F3F4F77FDE7CF36
:1005B0000CC0440F551F661F771F17FD4160EE0CDE
:1005C000FF1C001F111F21503040403090E05907A0
:1005D00090E0690790E4790760F32B8F3C8FDB0193
:1005E000CA018F779070A070B07080349105A1051A
:1005F000B10561F447FD0AC0E114F10401051105DC
:1006000029F0405C5F4F6F4F7F4F40781A8EFE1786
:1006100011F081E08A8F4D8F5E8F6F8F78A383E01A
:10062000898FCE0149960E947105A096E2E10C9453
:100630009C22A8E1B0E0EFE1F3E00C94882269830A
:100640007A838B839C832D833E834F835887B9E0C5
:10065000EB2EF12CEC0EFD1ECE010196B7010E948F
:1006600046068E010F5E1F4FCE010596B8010E940F
:1006700046062985223008F47EC03989323010F4CC
:10068000B8017CC08A859A8989278A87243011F02D
:10069000223031F4231709F06EC060E670E06EC0BE
:1006A000343039F41D861E861F86188A1C861B86E8
:1006B00004C0323021F484E08987B7015FC02B8504
:1006C0003C858B899C89281B390B3C872B87ED84C3
:1006D000FE840F851889AD88BE88CF88D88CEA142F
:1006E000FB040C051D0540F4EE0CFF1C001F111F40
:1006F000215030403C872B8720E030E040E050E044
:1007000080E090E0A0E0B0E460E070E0EA14FB0478
:100710000C051D0540F0282B392B4A2B5B2BEA18C2
:10072000FB080C091D09B695A79597958795EE0CC2
:10073000FF1C001F111F6F5F7F4F6F31710531F775
:10074000DA01C9018F779070A070B0708034910584
:10075000A105B10561F427FD0AC0E114F10401050A
:10076000110529F0205C3F4F4F4F5F4F20782D87B8
:100770003E874F87588BBE01675F7F4FCB010E943A
:1007800071056896EAE00C94A422A8E1B0E0EBECD5
:10079000F3E00C948C2269837A838B839C832D8372
:1007A0003E834F83588789E0E82EF12CEC0EFD1E26
:1007B000CE010196B7010E9446068E010F5E1F4FC3
:1007C000CE010596B8010E9446068985823040F028
:1007D0008989823028F0C701B8010E94BE0601C095
:1007E0008FEF6896E6E00C94A822A8E1B0E0EBEF6A
:1007F000F3E00C948C2269837A838B839C832D8312
:100800003E834F83588789E0E82EF12CEC0EFD1EC5
:10081000CE010196B7010E9446068E010F5E1F4F62
:10082000CE010596B8010E9446068985823040F0C7
:100830008989823028F0C701B8010E94BE0601C034
:100840008FEF6896E6E00C94A822A8E1B0E0EBE216
:10085000F4E00C948C2269837A838B839C832D83B0
:100860003E834F83588789E0E82EF12CEC0EFD1E65
:10087000CE010196B7010E9446068E010F5E1F4F02
:10088000CE010596B8010E9446068985823040F067
:100890008989823028F0C701B8010E94BE0601C0D4
:1008A00081E06896E6E00C94A822ACE0B0E0EBE5CD
:1008B000F4E00C94902269837A838B839C83CE012D
:1008C0000196BE016B5F7F4F0E9446068D8182308C
:1008D00061F1823050F1843021F48E81882351F10E
:1008E0002EC02F81388537FD20C06E812F31310514
:1008F0001CF06623F9F023C08EE190E0821B930B7D
:1009000029853A854B855C8504C056954795379572
:1009100027958A95D2F76623B1F05095409530958A
:1009200021953F4F4F4F5F4F0EC020E030E040E039
:1009300050E009C02FEF3FEF4FEF5FE704C020E02A
:1009400030E040E050E8B901CA012C96E2E00C9496
:10095000AC22A8E0B0E0EFEAF4E00C9488227B013E
:100960008C01611571058105910519F482E0898377
:1009700060C083E089838EE1C82ED12CDC82CB82DB
:10098000ED82FE820F831887C801B7010E942205FD
:10099000FC013197F7FF3BC0222733272E1B3F0B6B
:1009A00057016801022E04C0D694C794B794A79447
:1009B0000A94D2F740E050E060E070E081E090E01F
:1009C000A0E0B0E004C0880F991FAA1FBB1F2A95A2
:1009D000D2F70197A109B1098E219F21A023B1234C
:1009E0000097A105B10521F041E050E060E070E022
:1009F0004A295B296C297D294D835E836F83788723
:100A00008EE190E08E1B9F0B9C838B8312C03097EE
:100A100081F00E2E04C0EE0CFF1C001F111F0A9463
:100A2000D2F7ED82FE820F831887CE1ADF0ADC82AE
:100A3000CB821A82CE0101960E9471052896EAE0C7
:100A40000C94A422EF92FF920F931F937B018C01D1
:100A500080E0E81680E0F80681E0080780E01807EB
:100A600088F48FEFE816F1040105110531F028F044
:100A700088E090E0A0E0B0E017C080E090E0A0E067
:100A8000B0E012C080E0E81680E0F80680E00807D9
:100A900081E0180728F088E190E0A0E0B0E004C011
:100AA00080E190E0A0E0B0E020E230E040E050E003
:100AB000281B390B4A0B5B0B04C016950795F7945E
:100AC000E7948A95D2F7F701E859FF4F8081281BF8
:100AD000310941095109C9011F910F91FF90EF9010
:100AE0000895DF92EF92FF920F931F93FC01E48031
:100AF000F58006811781D1808081823048F480E0C2
:100B000090E0A0E1B0E0E82AF92A0A2B1B2BA5C04F
:100B1000843009F49FC0823021F4EE24FF24870141
:100B200005C0E114F1040105110519F4E0E0F0E05D
:100B300096C0628173819FEF623879070CF05BC0C9
:100B400022E83FEF261B370B2A3131052CF020E03D
:100B500030E040E050E02AC0B801A701022E04C0F6
:100B600076956795579547950A94D2F781E090E07E
:100B7000A0E0B0E004C0880F991FAA1FBB1F2A95F0
:100B8000D2F70197A109B1098E219F21A023B1239A
:100B90000097A105B10521F081E090E0A0E0B0E070
:100BA0009A01AB01282B392B4A2B5B2BDA01C901A7
:100BB0008F779070A070B07080349105A105B10559
:100BC00039F427FF09C0205C3F4F4F4F5F4F04C0EF
:100BD000215C3F4F4F4F5F4FE0E0F0E02030A0E05E
:100BE0003A07A0E04A07A0E45A0710F0E1E0F0E07D
:100BF00079018A0127C06038710564F5FB01E1586D
:100C0000FF4FD801C7018F779070A070B07080340B
:100C10009105A105B10539F4E7FE0DC080E490E02F
:100C2000A0E0B0E004C08FE390E0A0E0B0E0E80E08
:100C3000F91E0A1F1B1F17FF05C016950795F7948D
:100C4000E794319687E016950795F794E7948A958F
:100C5000D1F705C0EE24FF248701EFEFF0E06E2FFF
:100C6000679566276795902F9F77D794DD24D79453
:100C70008E2F8695492F462B582F5D29B701CA0123
:100C80001F910F91FF90EF90DF900895FC01DB0121
:100C9000408151812281622F6F7770E0221F2227CD
:100CA000221F9381892F880F822B282F30E0991FD4
:100CB0009927991F11969C93119721153105A9F534
:100CC000411551056105710511F482E037C082E8D4
:100CD0009FEF13969C938E9312979A01AB0167E056
:100CE000220F331F441F551F6A95D1F783E08C9361
:100CF0000DC0220F331F441F551F12968D919C91DA
:100D00001397019713969C938E931297203080E04F
:100D1000380780E0480780E4580758F314962D936D
:100D20003D934D935C93179708952F3F310579F4C8
:100D3000411551056105710519F484E08C930895FE
:100D400064FF03C081E08C9312C01C9210C02F5727
:100D5000304013963C932E93129783E08C9387E058
:100D6000440F551F661F771F8A95D1F7706414963C
:100D70004D935D936D937C93179708951F93DC01BA
:100D8000FB019C91923008F447C08081823008F4C6
:100D900043C0943051F411961C91843099F58181AF
:100DA000682F70E0611B71093FC0843021F09230E0
:100DB00031F48230B9F18181882389F12DC01196F7
:100DC0001C9111978230F1F081811817D9F4129695
:100DD0002D913C911397828193818217930794F010
:100DE00028173907BCF014968D919D910D90BC91F8
:100DF000A02D2481358146815781281739074A075C
:100E00005B0718F4112341F00AC082179307A40767
:100E1000B50740F4112319F061E070E005C06FEFF1
:100E20007FEF02C060E070E0CB011F910895DF9377
:100E3000CF9300D000D0CDB7DEB71C821B821A82C0
:100E400019828B818F7B8B83ABE2B0E0EBE2F0E029
:100E5000808182608C9381E08C83AAE2B0E0EAE238
:100E6000F0E0808180618C93AAE2B0E0EAE2F0E0F9
:100E7000808188608C938B818F7E8B838B81806255
:100E80008B8381E08C838B81877F8B8381E08C8354
:100E90008B8182608B838B8184608B83AAE2B0E03C
:100EA000EAE2F0E080818B7F8C9381E08C838B8100
:100EB00080688B83E0E4F0E08B8180838CE090E0BD
:100EC0009A838983E9E2F0E089818083A0E4B0E03D
:100ED000E0E4F0E0208189819A81892F9927822B93
:100EE0008C9381E08C838C810F900F900F900F90EA
:100EF000CF91DF910895DF93CF9300D0CDB7DEB7C8
:100F00008A831982EBE2F0E0808182958695877072
:100F1000882F90E0817090700097A1F3ECE2F0E0F0
:100F20008A81808381E0898389810F900F90CF919E
:100F3000DF910895DF93CF9300D00F92CDB7DEB746
:100F40009B838A8319828A819B81009771F0EBE2EF
:100F5000F0E080818823DCF7ECE2F0E08081EA8138
:100F6000FB81808381E0898302C082E0898389815B
:100F70000F900F900F90CF91DF910895DF93CF9353
:100F800000D00F92CDB7DEB79B838A8319828A8106
:100F90009B81009701F117C0EBE2F0E08081829520
:100FA00086958770882F90E0817090700097A1F3EC
:100FB000ACE2B0E0EA81FB8180818C938A819B81E5
:100FC00001969B838A83EA81FB818081882321F7B4
:100FD00081E0898302C082E0898389810F900F902C
:100FE0000F90CF91DF910895DF93CF9300D000D081
:100FF0000F92CDB7DEB79D838C831B821A82198234
:101000008C819D81009749F1EBE2F0E0808188239B
:10101000DCF7ECE2F0E080818A838A818D3019F080
:101020008A818A3061F48981282F30E08C819D810A
:10103000FC01E20FF31F108281E08B8310C08981D5
:10104000282F30E08C819D81FC01E20FF31F8A8103
:10105000808389818F5F8983D7CF82E08B838B8167
:101060000F900F900F900F900F90CF91DF910895F8
:10107000DF93CF9300D0CDB7DEB78A8319828A8100
:10108000882369F582E065E041E00E94AA0D82E0D4
:1010900067E041E00E94AA0D82E066E040E00E9425
:1010A000AA0D82E064E040E00E94AA0DEDE2F0E0CB
:1010B00081E58083EDE2F0E0808182958F70882F5A
:1010C00090E081709070009739F4ADE2B0E0EDE20D
:1010D000F0E0808180618C9381E0898302C083E0AD
:1010E000898389810F900F90CF91DF910895DF93CD
:1010F000CF9300D0CDB7DEB78A8319828A81882347
:10110000D9F482E066E041E00E94AA0D82E067E047
:1011100040E00E94AA0D82E066E040E00E94AA0D35
:1011200082E064E040E00E94AA0DEDE2F0E080E49D
:10113000808381E0898302C083E0898389810F9065
:101140000F90CF91DF910895DF93CF930F92CDB79A
:10115000DEB71982ADE2B0E0EDE2F0E080818064BC
:101160008C9381E0898389810F90CF91DF910895DD
:10117000DF93CF930F92CDB7DEB71982ADE2B0E027
:10118000EDE2F0E080818F7B8C9381E0898389811F
:101190000F90CF91DF910895DF93CF930F92CDB74A
:1011A000DEB71982ADE2B0E0EDE2F0E08081806868
:1011B0008C9381E0898389810F90CF91DF9108958D
:1011C000DF93CF930F92CDB7DEB71982ADE2B0E0D7
:1011D000EDE2F0E080818F778C9381E089838981D3
:1011E0000F90CF91DF910895DF93CF9300D00F92AE
:1011F000CDB7DEB78A836B8319828A81882359F43D
:10120000EFE2F0E08B818083EEE2F0E080818823E2
:10121000DCF781E0898389810F900F900F90CF9147
:10122000DF910895DF93CF9300D000D0CDB7DEB724
:101230008A837C836B8319828B819C81009789F0E0
:101240008A81882381F4EEE2F0E080818823DCF754
:10125000EFE2F0E08081EB81FC81808381E0898393
:1012600002C082E0898389810F900F900F900F90C8
:10127000CF91DF910895DF93CF9300D000D00F92EC
:10128000CDB7DEB79B838A837D836C8319828A8185
:101290009B810097A9F08C819D81009789F08A81BC
:1012A0009B8190939901809398018C819D8190936B
:1012B0009B0180939A010E94CC0881E0898302C03F
:1012C00082E0898389810F900F900F900F900F908B
:1012D000CF91DF9108951F920F920FB60F921124B4
:1012E0002F933F934F935F936F937F938F939F932E
:1012F000AF93BF93EF93FF93DF93CF93CDB7DEB759
:1013000080919801909199010097A1F0E091980146
:10131000F09199010995A0919A01B0919B01EFE29A
:10132000F0E080818C93ADE2B0E0EDE2F0E080810E
:101330008F778C93CF91DF91FF91EF91BF91AF9118
:101340009F918F917F916F915F914F913F912F91DD
:101350000F900FBE0F901F901895DF93CF93CDB7CE
:10136000DEB7EAE3F0E081E08083E7E3F0E088E0E5
:101370008083E4E3F0E08FEF8083E1E3F0E082E05C
:101380008083EBE3F0E01082E8E3F0E01082E5E335
:10139000F0E01082E2E3F0E01082CF91DF91089557
:1013A000DF93CF930F92CDB7DEB71982AFE5B0E0F0
:1013B000EFE5F0E0808180688C9381E0898389810A
:1013C0000F90CF91DF910895DF93CF930F92CDB718
:1013D000DEB71982AFE5B0E0EFE5F0E080818F770E
:1013E0008C9381E0898389810F90CF91DF9108955B
:1013F000DF93CF9300D000D00F92CDB7DEB78A83B2
:101400006B8319828A818823B9F18A818530A0F59E
:101410008A81282F30E03D832C838C819D8182300E
:101420009105D9F02C813D812330310534F48C8134
:101430009D818130910561F021C02C813D81233057
:10144000310581F08C819D818430910581F016C039
:10145000EBE3F0E08B81808311C0E8E3F0E08B8167
:1014600080830CC0E5E3F0E08B81808307C0E2E37A
:10147000F0E08B81808302C083E0898389810F90B3
:101480000F900F900F900F90CF91DF910895DF9301
:10149000CF93CDB7DEB728970FB6F894DEBF0FBE57
:1014A000CDBF8A836B834C8319828A81882309F498
:1014B000FFC08A81853008F0FBC08B81883008F03E
:1014C000F4C08C81813009F072C08A81282F30E00D
:1014D00038872F838F8198858230910551F12F8134
:1014E00038852330310534F48F819885813091051A
:1014F00061F05AC02F8138852330310571F18F8119
:10150000988584309105E9F14FC0ABE3B0E0EBE39F
:10151000F0E08081482F8B81282F30E081E090E03F
:10152000022E02C0880F991F0A94E2F7842B8C9335
:101530003BC0A8E3B0E0E8E3F0E08081482F8B8176
:10154000282F30E081E090E0022E02C0880F991F22
:101550000A94E2F7842B8C9327C0A5E3B0E0E5E37F
:10156000F0E08081482F8B81282F30E081E090E0EF
:10157000022E02C0880F991F0A94E2F7842B8C93E5
:1015800013C0A2E3B0E0E2E3F0E08081482F8B815A
:10159000282F30E081E090E0022E02C0880F991FD2
:1015A0000A94E2F7842B8C9381E0898383C08C8139
:1015B000882309F077C08A81282F30E03E832D836D
:1015C0008D819E818230910561F12D813E81233094
:1015D000310534F48D819E818130910569F05FC0C1
:1015E0002D813E812330310589F18D819E818430AA
:1015F000910509F440C053C0ABE3B0E0EBE3F0E089
:101600008081482F8B81282F30E081E090E0022EEE
:1016100002C0880F991F0A94E2F7809584238C9367
:101620003EC0A8E3B0E0E8E3F0E08081482F8B8182
:10163000282F30E081E090E0022E02C0880F991F31
:101640000A94E2F7809584238C9329C0A5E3B0E047
:10165000E5E3F0E08081482F8B81282F30E081E0A6
:1016600090E0022E02C0880F991F0A94E2F780953D
:1016700084238C9314C0A2E3B0E0E2E3F0E0808125
:10168000482F8B81282F30E081E090E0022E02C0AD
:10169000880F991F0A94E2F7809584238C9381E048
:1016A000898308C083E0898305C083E0898302C001
:1016B00083E08983898128960FB6F894DEBF0FBE38
:1016C000CDBFCF91DF910895DF93CF9300D000D0AD
:1016D000CDB7DEB78A8319828A818823A9F18A81EE
:1016E000853090F58A81282F30E03C832B838B81D5
:1016F0009C8182309105D1F02B813C8123303105D2
:1017000034F48B819C818130910561F01AC02B816A
:101710003C812330310571F08B819C8184309105AF
:1017200069F00FC0EBE3F0E010820BC0E8E3F0E0FB
:10173000108207C0E5E3F0E0108203C0E2E3F0E0CE
:10174000108281E0898302C083E0898389810F90C0
:101750000F900F900F90CF91DF910895DF93CF936B
:1017600000D000D0CDB7DEB78A8319828A81882362
:1017700009F446C08A81853008F042C08A81282F4A
:1017800030E03C832B838B819C8182309105F1F08A
:101790002B813C812330310534F48B819C81813055
:1017A000910561F02AC02B813C8123303105B1F0D5
:1017B0008B819C8184309105C9F01FC0ABE3B0E000
:1017C000EBE3F0E0808180958C9317C0A8E3B0E054
:1017D000E8E3F0E0808180958C930FC0A5E3B0E052
:1017E000E5E3F0E0808180958C9307C0A2E3B0E050
:1017F000E2E3F0E0808180958C9381E0898302C0F0
:1018000083E0898389810F900F900F900F90CF9183
:10181000DF910895DF93CF9300D000D00F92CDB722
:10182000DEB78A836B8319828A81882309F47DC09D
:101830008A81853008F079C08B81883008F072C0C9
:101840008A81282F30E03D832C838C819D818230DA
:10185000910551F12C813D812330310534F48C8187
:101860009D818130910561F05AC02C813D812330EA
:10187000310571F18C819D8184309105E9F14FC072
:10188000ABE3B0E0EBE3F0E08081482F8B81282FC1
:1018900030E081E090E0022E02C0880F991F0A9488
:1018A000E2F784278C933BC0A8E3B0E0E8E3F0E0E4
:1018B0008081482F8B81282F30E081E090E0022E3C
:1018C00002C0880F991F0A94E2F784278C9327C0DF
:1018D000A5E3B0E0E5E3F0E08081482F8B81282F7D
:1018E00030E081E090E0022E02C0880F991F0A9438
:1018F000E2F784278C9313C0A2E3B0E0E2E3F0E0C8
:101900008081482F8B81282F30E081E090E0022EEB
:1019100002C0880F991F0A94E2F784278C9381E014
:10192000898305C083E0898302C083E0898389813C
:101930000F900F900F900F900F90CF91DF9108951F
:10194000DF93CF9300D000D000D0CDB7DEB78A832D
:101950007C836B8319828B819C81009709F449C039
:101960008A81882309F442C08A81853008F03EC00C
:101970008A81282F30E03E832D838D819E818230A5
:101980009105E9F02D813E812330310534F48D81BC
:101990009E818130910561F026C02D813E812330EA
:1019A0003105A1F08D819E8184309105B1F01BC07D
:1019B000E9E3F0E08081EB81FC81808314C0E6E301
:1019C000F0E08081EB81FC8180830DC0E3E3F0E0F7
:1019D0008081EB81FC81808306C0E0E3F0E08081C0
:1019E000EB81FC81808381E0898305C083E089836A
:1019F00002C082E08983898126960FB6F894DEBF03
:101A00000FBECDBFCF91DF910895DF93CF93CDB7B8
:101A1000DEB727970FB6F894DEBF0FBECDBF8A831F
:101A20006B835D834C8319828C819D81009709F4BF
:101A300085C08A81882309F47EC08A81853008F0B8
:101A40007AC08B81883008F073C08A81282F30E0FB
:101A50003F832E834E815F814230510559F18E8143
:101A60009F818330910534F42E813F8121303105EF
:101A700069F05BC04E815F814330510579F18E8101
:101A80009F818430910509F43DC04FC0E9E3F0E047
:101A90008081282F30E08B81882F90E0A90102C03F
:101AA000559547958A95E2F7CA018170EC81FD81D1
:101AB00080833BC0E6E3F0E08081282F30E08B811B
:101AC000882F90E0A90102C0559547958A95E2F7C5
:101AD000CA018170EC81FD81808327C0E3E3F0E0DF
:101AE0008081282F30E08B81882F90E0A90102C0EF
:101AF000559547958A95E2F7CA018170EC81FD8181
:101B0000808313C0E0E3F0E08081282F30E08B81F8
:101B1000882F90E0A90102C0559547958A95E2F774
:101B2000CA018170EC81FD81808381E0898308C0D6
:101B300083E0898305C083E0898302C082E08983D2
:101B4000898127960FB6F894DEBF0FBECDBFCF9127
:101B5000DF910895DF93CF93CDB7DEB728970FB607
:101B6000F894DEBF0FBECDBF8A836B834C8319828E
:101B70008A81882309F4FFC08A81853008F0FBC080
:101B80008B81883008F0F4C08C81813009F072C0FC
:101B90008A81282F30E038872F838F819885823083
:101BA000910551F12F8138852330310534F48F812F
:101BB00098858130910561F05AC02F813885233096
:101BC000310571F18F81988584309105E9F14FC01D
:101BD000AAE3B0E0EAE3F0E08081482F8B81282F70
:101BE00030E081E090E0022E02C0880F991F0A9435
:101BF000E2F7842B8C933BC0A7E3B0E0E7E3F0E08F
:101C00008081482F8B81282F30E081E090E0022EE8
:101C100002C0880F991F0A94E2F7842B8C9327C087
:101C2000A4E3B0E0E4E3F0E08081482F8B81282F2B
:101C300030E081E090E0022E02C0880F991F0A94E4
:101C4000E2F7842B8C9313C0A1E3B0E0E1E3F0E072
:101C50008081482F8B81282F30E081E090E0022E98
:101C600002C0880F991F0A94E2F7842B8C9381E0BD
:101C7000898383C08C81882309F077C08A81282FCB
:101C800030E03E832D838D819E818230910561F10C
:101C90002D813E812330310534F48D819E81813048
:101CA000910569F05FC02D813E812330310589F1B6
:101CB0008D819E818430910509F440C053C0AAE310
:101CC000B0E0EAE3F0E08081482F8B81282F30E0FC
:101CD00081E090E0022E02C0880F991F0A94E2F77B
:101CE000809584238C933EC0A7E3B0E0E7E3F0E067
:101CF0008081482F8B81282F30E081E090E0022EF8
:101D000002C0880F991F0A94E2F7809584238C9370
:101D100029C0A4E3B0E0E4E3F0E08081482F8B81A8
:101D2000282F30E081E090E0022E02C0880F991F3A
:101D30000A94E2F7809584238C9314C0A1E3B0E069
:101D4000E1E3F0E08081482F8B81282F30E081E0B3
:101D500090E0022E02C0880F991F0A94E2F7809546
:101D600084238C9381E0898308C083E0898305C044
:101D700083E0898302C083E08983898128960FB636
:101D8000F894DEBF0FBECDBFCF91DF910895DF93F2
:101D9000CF93CDB7DEB727970FB6F894DEBF0FBE4F
:101DA000CDBF8A836B8319828A81882309F471C02D
:101DB0008A81853008F06DC08B818130A1F58A81E0
:101DC000282F30E03F832E838E819F8182309105C2
:101DD000D9F02E813F812330310534F48E819F81EB
:101DE0008130910561F057C02E813F81233031054C
:101DF00081F08E819F818430910581F04CC0EAE3AF
:101E0000F0E08FEF808347C0E7E3F0E08FEF80835F
:101E100042C0E4E3F0E08FEF80833DC0E1E3F0E017
:101E20008FEF808338C08B81882381F58A81282FAA
:101E300030E03D832C838C819D8182309105D1F0EF
:101E40002C813D812330310534F48C819D8181309A
:101E5000910561F020C02C813D812330310571F066
:101E60008C819D818430910569F015C0EAE3F0E032
:101E7000108211C0E7E3F0E010820DC0E4E3F0E06F
:101E8000108209C0E1E3F0E0108205C083E089839D
:101E900002C083E08983898127960FB6F894DEBF5C
:101EA0000FBECDBFCF91DF910895DF93CF930F92F7
:101EB000CDB7DEB71982A6E2B0E0E6E2F0E08081BD
:101EC00081608C93A6E2B0E0E6E2F0E0808182607F
:101ED0008C93A6E2B0E0E6E2F0E0808184608C932F
:101EE00081E08983A7E2B0E0E7E2F0E080818064EE
:101EF0008C93A7E2B0E0E7E2F0E080818F778C93EB
:101F000081E08983A7E2B0E0E7E2F0E080818F7DA5
:101F10008C9381E0898389810F90CF91DF9108951F
:101F2000DF93CF9300D000D000D0CDB7DEB78A8347
:101F30007C836B835E834D8319828B819C810097A8
:101F400029F18A810E94201189838B819C81909341
:101F50009D0180939C018D819E8190939F01809330
:101F60009E010E940C11982F8981892B89830E94E0
:101F7000B110982F8981892B89838D819E810E9440
:101F8000D910982F8981892B898302C082E08983A7
:101F9000898126960FB6F894DEBF0FBECDBFCF91D4
:101FA000DF910895DF93CF9300D000D0CDB7DEB797
:101FB0008A837C836B8319828B819C810097F9F0E3
:101FC0008A810E94201189830E940C11982F898197
:101FD000892B89830E94C510982F8981892B898339
:101FE0000E944411982F8981892B89838B819C8140
:101FF0000E94D910982F8981892B898302C082E0A1
:10200000898389810F900F900F900F90CF91DF916E
:102010000895DF93CF9300D000D00F92CDB7DEB7F5
:102020009B838A837D836C8319828C819D81009739
:10203000F9F08A819B81CC01A0E0B0E028E833E18F
:1020400040E050E0BC01CD010E942B22DC01CB011D
:10205000072E7AE0B695A795979587957A95D1F74B
:10206000702DEC81FD819183808381E0898302C0A2
:1020700082E0898389810F900F900F900F900F90CD
:10208000CF91DF910895DF93CF9300D0CDB7DEB726
:102090008A831982A6E2B0E0E6E2F0E080818F7DDB
:1020A0008C93A0E5B0E0E0E5F0E080818F7D8C933B
:1020B000A0E5B0E0E0E5F0E080818F7B8C93A0E5C7
:1020C000B0E0E0E5F0E080818F778C9381E0898358
:1020D000A6E2B0E0E6E2F0E0808180628C93898144
:1020E0000F900F90CF91DF910895DF93CF930F92D0
:1020F000CDB7DEB71982A6E2B0E0E6E2F0E080817B
:102100008F7D8C9381E0898389810F90CF91DF91BE
:102110000895DF93CF930F92CDB7DEB71982A6E271
:10212000B0E0E6E2F0E0808180688C9381E0898312
:1021300089810F90CF91DF910895DF93CF930F9214
:10214000CDB7DEB71982A6E2B0E0E6E2F0E080812A
:102150008F778C9381E0898389810F90CF91DF9174
:102160000895DF93CF930F92CDB7DEB71982A6E221
:10217000B0E0E6E2F0E0808188608C9381E08983C2
:1021800089810F90CF91DF910895DF93CF930F92C4
:10219000CDB7DEB71982A6E2B0E0E6E2F0E08081DA
:1021A000877F8C9381E0898389810F90CF91DF9124
:1021B0000895DF93CF9300D00F92CDB7DEB79B8306
:1021C0008A8319828A819B810097E9F0E4E2F0E03A
:1021D0008081882F90E0EA81FB8191838083EA816E
:1021E000FB8120813181E5E2F0E08081882F90E061
:1021F000982F8827822B932BEA81FB819183808300
:1022000081E0898302C082E0898389810F900F90E9
:102210000F90CF91DF910895DF93CF930F92CDB7B9
:10222000DEB71982A6E2B0E0E6E2F0E080818064E9
:102230008C9381E0898389810F90CF91DF910895FC
:10224000DF93CF9300D0CDB7DEB78A831982A7E2A0
:10225000B0E0E7E2F0E08081807E8C938A8180327A
:1022600058F4A7E2B0E0E7E2F0E090818A81892BA0
:102270008C9381E0898302C083E0898389810F90F8
:102280000F90CF91DF910895DF93CF930F92CDB749
:10229000DEB71982E6E2F0E0808182958F70882FA8
:1022A00090E0817090700097A9F3A6E2B0E0E6E2BA
:1022B000F0E080818F7E8C9381E0898389810F900B
:1022C000CF91DF910895DF93CF9300D000D000D05D
:1022D000CDB7DEB79E838D831C8284E689838D8192
:1022E0009E81009719F482E08C8338C0ED81FE81D5
:1022F00080818B831982ED81FE8181818A83ED81CA
:10230000FE81228133818981882F90E0880F991F77
:10231000D901A80FB91FE4E2F0E0808191818D938B
:102320009C93A7E2B0E0E7E2F0E08081807E8C93AE
:10233000A7E2B0E0E7E2F0E090818B81892B8C93FB
:10234000A6E2B0E0E6E2F0E0808180648C93A6E251
:10235000B0E0E6E2F0E0808188608C938C81269684
:102360000FB6F894DEBF0FBECDBFCF91DF910895B9
:102370001F920F920FB60F9211242F933F934F93FA
:102380005F936F937F938F939F93AF93BF93EF93DD
:10239000FF93DF93CF93CDB7DEB780919C019091EF
:1023A0009D01009749F0E0919C01F0919D01809181
:1023B0009E0190919F010995CF91DF91FF91EF913F
:1023C000BF91AF919F918F917F916F915F914F914D
:1023D0003F912F910F900FBE0F901F901895DF9394
:1023E000CF930F92CDB7DEB7198281E060E040E075
:1023F0000E94AA0D898389810F90CF91DF91089562
:10240000DF93CF9300D000D000D0CDB7DEB78C8360
:102410007E836D8319828D819E81009709F44CC063
:102420000E9489100E9475109E012E5F3F4F8C8183
:10243000B9010E94D20F0E949D108A819B8121E0E8
:102440008C32920720F4ED81FE81108232C08A81A5
:102450009B81CC01A0E0B0E0BC01CD010E94A904A9
:10246000DC01CB01BC01CD0120E030E046E953E4C2
:102470000E94C101DC01CB01BC01CD0120E030E0B4
:1024800048EC53E40E941903DC01CB01BC01CD01EF
:1024900020E030E048EC52E40E941F02DC01CB0156
:1024A000BC01CD010E944900DC01CB01ED81FE8120
:1024B000808381E0898302C082E0898389812696B6
:1024C0000FB6F894DEBF0FBECDBFCF91DF91089558
:1024D000DF93CF930F92CDB7DEB7198281E060E032
:1024E00040E00E94AA0D898389810F90CF91DF91EE
:1024F0000895DF93CF93CDB7DEB728970FB6F89442
:10250000DEBF0FBECDBF8E8378876F8319820E9496
:1025100089100E9475109E012E5F3F4F8E81B90178
:102520000E94D20F8A819B819E012C5F3F4FB9018F
:102530000E9409100E949D108F819885009771F06C
:102540008C819D812AE030E0B9010E944A22CB01B2
:10255000EF81F885808381E0898302C082E08983EE
:10256000898128960FB6F894DEBF0FBECDBFCF91FC
:10257000DF910895DF93CF9300D000D0CDB7DEB7C1
:102580009C838B831A828B819C81009709F4F7C00E
:102590001982F0C08981282F30E0C901880F991F66
:1025A000280F391F8B819C81FC01E20FF31F808172
:1025B000882309F4DAC08981282F30E0C901880F07
:1025C000991F280F391F8B819C81FC01E20FF31F9B
:1025D0008081853008F0C9C08981282F30E0C90189
:1025E000880F991F280F391F8B819C81FC01E20FF6
:1025F000F31F8181883008F0B5C08981282F30E031
:10260000C901880F991F280F391F8B819C81FC01FC
:10261000E20FF31F8281833009F048C08981282F9F
:1026200030E0C901880F991F280F391F8B819C81C9
:10263000FC01E20FF31F40818981282F30E0C9019E
:10264000880F991F280F391F8B819C81FC01E20F95
:10265000F31F9181842F692F41E00E94AA0D8A8384
:102660008981282F30E0C901880F991F280F391F51
:102670008B819C81FC01E20FF31F40818981282F0F
:1026800030E0C901880F991F280F391F8B819C8169
:10269000FC01E20FF31F9181842F692F40E00E941B
:1026A000470A982F8A81892B8A8361C08981282FC4
:1026B00030E0C901880F991F280F391F8B819C8139
:1026C000FC01E20FF31F8281843009F048C0898148
:1026D000282F30E0C901880F991F280F391F8B81DF
:1026E0009C81FC01E20FF31F40818981282F30E09B
:1026F000C901880F991F280F391F8B819C81FC010C
:10270000E20FF31F9181842F692F41E00E94AA0DEF
:102710008A838981282F30E0C901880F991F280FEB
:10272000391F8B819C81FC01E20FF31F408189815D
:10273000282F30E0C901880F991F280F391F8B817E
:102740009C81FC01E20FF31F9181842F692F41E0EE
:102750000E94470A982F8A81892B8A8308C083E0C8
:102760008A8305C083E08A8302C083E08A838981EB
:102770008F5F89838981823008F40CCF02C082E0A8
:102780008A838A810F900F900F900F90CF91DF91E5
:102790000895DF93CF9300D00F92CDB7DEB79B8320
:1027A0008A8319828A819B81009729F1EA81FB81C2
:1027B0008281833061F4EA81FB818081EA81FB813F
:1027C0009181692F41E00E94470A898316C0EA81FE
:1027D000FB818281843061F4EA81FB818081EA811E
:1027E000FB819181692F40E00E94470A898305C0DF
:1027F00083E0898302C082E0898389810F900F90F2
:102800000F90CF91DF910895DF93CF9300D00F9277
:10281000CDB7DEB79B838A8319828A819B8100971B
:1028200029F1EA81FB818281833061F4EA81FB81B5
:102830008081EA81FB819181692F40E00E94470AF3
:10284000898316C0EA81FB818281843061F4EA8148
:10285000FB818081EA81FB819181692F41E00E94A7
:10286000470A898305C083E0898302C082E08983A7
:1028700089810F900F900F90CF91DF910895DF9392
:10288000CF9300D0CDB7DEB78A8319828A81883092
:1028900040F481E06A8140E00E94AA0D81E08983D2
:1028A00002C083E0898389810F900F90CF91DF91DF
:1028B0000895DF93CF9300D000D0CDB7DEB78A83E1
:1028C0007C836B8319828B819C81009779F00E94B5
:1028D00089100E9475102B813C818A81B9010E9468
:1028E000D20F0E949D1081E0898302C082E089831B
:1028F00089810F900F900F900F90CF91DF910895E5
:10290000DF93CF930F92CDB7DEB719820E949D104F
:1029100089810F90CF91DF910895DF93CF930F922C
:10292000CDB7DEB7198281E063E040E00E94AA0DD6
:10293000898389810F90CF91DF910895DF93CF93A1
:10294000CDB7DEB728970FB6F894DEBF0FBECDBF68
:102950008E8378876F831B820E9489100E94751076
:102960008F819885009709F45EC09E012C5F3F4FD0
:102970008E81B9010E94D20F8C819D81CC01A0E093
:10298000B0E0BC01CD010E94A904DC01CB01BC0177
:10299000CD0120E030E040EA50E40E941F02DC015B
:1029A000CB01BC01CD0120E030E04AE754E40E94B5
:1029B0001F02DC01CB01BC01CD0120E030E040E88A
:1029C00054E40E941903DC01CB01BC01CD010E943B
:1029D0004900DC01CB019A83898389819A81845FD4
:1029E0009240CC01A0E0B0E0BC01CD010E94A9045E
:1029F000DC01CB01BC01CD0128EB3EE14DEF51E400
:102A00000E941903DC01CB01BC01CD010E944900E9
:102A1000DC01CB01EF81F885918380830E949D10BA
:102A200081E08B8302C082E08B838B8128960FB676
:102A3000F894DEBF0FBECDBFCF91DF910895DF9335
:102A4000CF9300D000D0CDB7DEB79C838B831A82A2
:102A50008B819C81009709F4DFC01982D8C08981DD
:102A6000282F30E0C901880F991F880F991F880F00
:102A7000991FAC01421B530B9A018B819C81FC0175
:102A8000E20FF31F40818981282F30E0C901880FB0
:102A9000991F880F991F880F991FBC01621B730B28
:102AA0009B018B819C81FC01E20FF31F9181842F9C
:102AB000692F41E00E94AA0D8A838981282F30E086
:102AC000C901880F991F880F991F880F991FAC01A2
:102AD000421B530B9A018B819C81FC01E20FF31F77
:102AE00042818981282F30E0C901880F991F880F02
:102AF000991F880F991FBC01621B730B9B018B816F
:102B00009C81FC01E20FF31F9381842F692F41E028
:102B10000E94AA0D982F8A81892B8A838981282F68
:102B200030E0C901880F991F880F991F880F991FDE
:102B3000AC01421B530B9A018B819C81FC01E20F7B
:102B4000F31F44818981282F30E0C901880F991F24
:102B5000880F991F880F991FBC01621B730B9B0183
:102B60008B819C81FC01E20FF31F9581842F692FDB
:102B700041E00E94AA0D982F8A81892B8A8389813E
:102B8000282F30E0C901880F991F880F991F880FDF
:102B9000991FAC01421B530B9A018B819C81FC0154
:102BA000E20FF31F54818981282F30E0C901880F7B
:102BB000991F880F991F880F991FBC01621B730B07
:102BC0009B018B819C81FC01E20FF31F4581898170
:102BD000282F30E0C901880F991F880F991F880F8F
:102BE000991FBC01621B730B9B018B819C81FC01B3
:102BF000E20FF31F9681852F642F492F0E94470A09
:102C0000982F8A81892B8A8389818F5F8983898123
:102C1000863008F424CF02C082E08A838A810F9034
:102C20000F900F900F90CF91DF910895DF93CF9386
:102C300000D00F92CDB7DEB79B838A8319828A8139
:102C40009B810097D1F0EA81FB818081EA81FB8141
:102C50009181692F41E00E94470A8983EA81FB81C3
:102C60008281EA81FB819381692F40E00E94470ABB
:102C7000982F8981892B898302C082E08983898189
:102C80000F900F900F90CF91DF910895DF93CF9326
:102C900000D00F92CDB7DEB79B838A8319828A81D9
:102CA0009B810097D1F0EA81FB818081EA81FB81E1
:102CB0009181692F40E00E94470A8983EA81FB8164
:102CC0008281EA81FB819381692F41E00E94470A5A
:102CD000982F8981892B898302C082E08983898129
:102CE0000F900F900F90CF91DF910895DF93CF93C6
:102CF00000D00F92CDB7DEB79B838A8319828A8179
:102D00009B810097D1F0EA81FB818081EA81FB8180
:102D10009181692F40E00E94470A8983EA81FB8103
:102D20008281EA81FB819381692F40E00E94470AFA
:102D3000982F8981892B898302C082E089838981C8
:102D40000F900F900F90CF91DF910895DF93CF9365
:102D5000CDB7DEB7E9970FB6F894DEBF0FBECDBF93
:102D600019AE0E94D41D89AF80E090E0A0E2B2E4E9
:102D70008DAB9EABAFABB8AF6DA97EA98FA998AD57
:102D800020E030E04AE753E40E941F02DC01CB015F
:102D900089AB9AABABABBCAB69A97AA98BA99CA94F
:102DA00020E030E040E85FE30E94250488232CF413
:102DB00081E090E098AB8FA73FC069A97AA98BA961
:102DC0009CA920E03FEF4FE757E40E94C503181687
:102DD0004CF56DA97EA98FA998AD20E030E040E2C6
:102DE00051E40E941F02DC01CB01BC01CD010E9415
:102DF0004900DC01CB0198AB8FA70FC089E190E0BF
:102E00009EA78DA78DA59EA50197F1F79EA78DA7DB
:102E10008FA598A9019798AB8FA78FA598A9009720
:102E200069F714C069A97AA98BA99CA90E944900D5
:102E3000DC01CB0198AB8FA78FA598A99CA78BA786
:102E40008BA59CA50197F1F79CA78BA788E20E9410
:102E50001B1E982F89AD892B89AF80E090E0A0E8F8
:102E6000BFE38FA398A7A9A7BAA76FA178A589A543
:102E70009AA520E030E04AE753E40E941F02DC01FB
:102E8000CB018BA39CA3ADA3BEA36BA17CA18DA101
:102E90009EA120E030E040E85FE30E942504882303
:102EA0002CF481E090E09AA389A33FC06BA17CA1A0
:102EB0008DA19EA120E03FEF4FE757E40E94C5039C
:102EC00018164CF56FA178A589A59AA520E030E0E9
:102ED00040E251E40E941F02DC01CB01BC01CD01A4
:102EE0000E944900DC01CB019AA389A30FC089E1AC
:102EF00090E098A38F8F8F8D98A10197F1F798A3F9
:102F00008F8F89A19AA101979AA389A389A19AA1D8
:102F1000009769F714C06BA17CA18DA19EA10E94AE
:102F20004900DC01CB019AA389A389A19AA19E8FB4
:102F30008D8F8D8D9E8D0197F1F79E8F8D8F8CE0FB
:102F40000E941B1E982F89AD892B89AF80E090E0ED
:102F5000A0E8BFE3898F9A8FAB8FBC8F698D7A8D84
:102F60008B8D9C8D20E030E04AE753E40E941F02E5
:102F7000DC01CB018D8B9E8BAF8BB88F6D897E89E9
:102F80008F89988D20E030E040E85FE30E942504BF
:102F900088232CF481E090E09C8B8B8B3FC06D8963
:102FA0007E898F89988D20E03FEF4FE757E40E949C
:102FB000C50318164CF5698D7A8D8B8D9C8D20E09C
:102FC00030E040E251E40E941F02DC01CB01BC0171
:102FD000CD010E944900DC01CB019C8B8B8B0FC083
:102FE00089E190E09A8B898B89899A890197F1F719
:102FF0009A8B898B8B899C8901979C8B8B8B8B8976
:103000009C89009769F714C06D897E898F89988D96
:103010000E944900DC01CB019C8B8B8B8B899C89A6
:10302000988B8F878F8598890197F1F7988B8F8779
:1030300081E00E941B1E982F89AD892B89AF80E00B
:1030400090E0A0E0B0E48B879C87AD87BE876B855E
:103050007C858D859E8520E030E04AE753E40E9420
:103060001F02DC01CB018F839887A987BA876F8104
:10307000788589859A8520E030E040E85FE30E940A
:10308000250488232CF481E090E09E838D833FC04B
:103090006F81788589859A8520E03FEF4FE757E477
:1030A0000E94C50318164CF56B857C858D859E8521
:1030B00020E030E040E251E40E941F02DC01CB013D
:1030C000BC01CD010E944900DC01CB019E838D83B0
:1030D0000FC089E190E09C838B838B819C81019759
:1030E000F1F79C838B838D819E8101979E838D83D5
:1030F0008D819E81009769F714C06F8178858985DD
:103100009A850E944900DC01CB019E838D838D81CD
:103110009E819A83898389819A810197F1F79A83A5
:10312000898386E00E941B1E982F89AD892B89AF69
:1031300089ADE9960FB6F894DEBF0FBECDBFCF9133
:10314000DF910895DF93CF9300D0CDB7DEB78A83A8
:10315000198283E060E040E00E94470A89838A8107
:103160000E94361C982F8981892B898389810F9031
:103170000F90CF91DF910895DF93CF9300D0CDB71B
:10318000DEB78A83198283E060E041E00E94470A4B
:1031900089838A810E94361C982F8981892B898393
:1031A00089810F900F90CF91DF910895DF93CF9396
:1031B00000D000D0CDB7DEB79C838B831A821982F2
:1031C0008B819C810097F9F012C08981282F30E013
:1031D0008B819C81FC01E20FF31F80810E94091FFB
:1031E000982F8A81892B8A8389818F5F898389813E
:1031F000282F30E08B819C81FC01E20FF31F80813E
:10320000882319F702C082E08A838A810F900F9089
:103210000F900F90CF91DF910895DF93CF9300D05F
:1032200000D0CDB7DEB78B836C831A828B8182305E
:10323000A0F48C81803188F48B81882319F48C81EF
:10324000898303C08C81805C8983898180588983CC
:1032500089810E941B1E8A8302C083E08A838A813F
:103260000F900F900F900F90CF91DF910895DF9303
:10327000CF93CDB7DEB728970FB6F894DEBF0FBE59
:10328000CDBF9D838C836E834F8328871B828C8167
:103290009D810097B1F18E81882F90E0880F991F52
:1032A000880F991F880F991F89838981805C0E94EC
:1032B0001B1E8B831A8212C08A81282F30E08C81DA
:1032C0009D81FC01E20FF31F80810E94091F982F4E
:1032D0008B81892B8B838A818F5F8A838A81883057
:1032E00058F38F8168850E940D19982F8B81892B47
:1032F0008B838E810E94091F982F8B81892B8B8352
:1033000002C082E08B838B8128960FB6F894DEBFD3
:103310000FBECDBFCF91DF910895EF92FF920F9333
:103320001F93DF93CF93CDB7DEB72A970FB6F894EC
:10333000DEBF0FBECDBF6E837F83888799871D82D6
:1033400081E090E0A0E0B0E089839A83AB83BC8306
:103350008E819F81A885B9850097A105B10509F0E7
:103360003FC080E30E94091F9D81892B8D838D8141
:103370008A8771C089819A81AB81BC812AE030E063
:1033800040E050E0BC01CD010E942B227B018C016A
:103390008E819F81A885B9852AE030E040E050E029
:1033A000BC01CD010E945E22DC01CB018E0D9F1D70
:1033B000A01FB11F89839A83AB83BC838E819F81B9
:1033C000A885B9852AE030E040E050E0BC01CD019D
:1033D0000E945E22DA01C9018E839F83A887B98784
:1033E0008E819F81A885B9850097A105B10511F649
:1033F00027C089819A81AB81BC812AE030E040E01E
:1034000050E0BC01CD010E945E22DC01CB01805D59
:103410000E94091F982F8D81892B8D8389819A8124
:10342000AB81BC812AE030E040E050E0BC01CD013E
:103430000E945E22DA01C90189839A83AB83BC832F
:1034400089819A81AB81BC8181309105A105B1054B
:1034500081F68D818A878A852A960FB6F894DEBF19
:103460000FBECDBFCF91DF911F910F91FF90EF90D5
:103470000895EF92FF920F931F93DF93CF93CDB7F1
:10348000DEB762970FB6F894DEBF0FBECDBF6E8772
:103490007F87888B998B1D8681E090E0A0E0B0E06B
:1034A00089839A83AB83BC836E857F85888999895C
:1034B0000E944900DC01CB0189879A87AB87BC87D2
:1034C00069857A858B859C850E94A9049B01AC0146
:1034D0006E857F85888999890E94C101DC01CB01B5
:1034E000BC01CD0120E030E048EC52E40E941F0214
:1034F000DC01CB01BC01CD010E944900DC01CB0104
:103500008D839E83AF83B88789859A85AB85BC857B
:103510000097A105B10509F03FC080E30E94091F93
:103520009D85892B8D878D858A8BFDC089819A81A8
:10353000AB81BC812AE030E040E050E0BC01CD012D
:103540000E942B227B018C0189859A85AB85BC85E5
:103550002AE030E040E050E0BC01CD010E945E2254
:10356000DC01CB018E0D9F1DA01FB11F89839A83A3
:10357000AB83BC8389859A85AB85BC852AE030E026
:1035800040E050E0BC01CD010E945E22DA01C90199
:1035900089879A87AB87BC8789859A85AB85BC85E7
:1035A0000097A105B10511F627C089819A81AB81E9
:1035B000BC812AE030E040E050E0BC01CD010E9437
:1035C0005E22DC01CB01805D0E94091F982F8D8552
:1035D000892B8D8789819A81AB81BC812AE030E07B
:1035E00040E050E0BC01CD010E945E22DA01C90139
:1035F00089839A83AB83BC8389819A81AB81BC81A7
:1036000081309105A105B10581F68EE20E94BC18BA
:1036100081E090E0A0E0B0E089839A83AB83BC8333
:103620008D819E81AF81B8850097A105B10509F014
:103630003FC080E30E94091F9D85892B8D878D8562
:103640008A8B71C089819A81AB81BC812AE030E08C
:1036500040E050E0BC01CD010E942B227B018C0197
:103660008D819E81AF81B8852AE030E040E050E056
:10367000BC01CD010E945E22DC01CB018E0D9F1D9D
:10368000A01FB11F89839A83AB83BC838D819E81E8
:10369000AF81B8852AE030E040E050E0BC01CD01C8
:1036A0000E945E22DA01C9018D839E83AF83B887B1
:1036B0008D819E81AF81B8850097A105B10511F676
:1036C00027C089819A81AB81BC812AE030E040E04B
:1036D00050E0BC01CD010E945E22DC01CB01805D87
:1036E0000E94091F982F8D85892B8D8789819A814A
:1036F000AB81BC812AE030E040E050E0BC01CD016C
:103700000E945E22DA01C90189839A83AB83BC835C
:1037100089819A81AB81BC8181309105A105B10578
:1037200081F68D858A8B8A8962960FB6F894DEBF02
:103730000FBECDBFCF91DF911F910F91FF90EF9002
:103740000895DF93CF930F92CDB7DEB7198281E052
:103750000E941B1E898389810F90CF91DF9108956C
:10376000DF93CF9300D000D0CDB7DEB78A83198224
:103770008A81843098F58A81282F30E03C832B831E
:103780008B819C8181309105D1F02B813C8122304D
:1037900031052CF48B819C81009761F021C02B8135
:1037A0003C812230310581F08B819C8183309105F1
:1037B00081F016C080E10E941B1E898311C084E144
:1037C0000E941B1E89830CC088E10E941B1E8983F6
:1037D00007C08CE10E941B1E898302C083E089839D
:1037E00089810F900F900F900F90CF91DF910895E6
:1037F000DF93CF9300D0CDB7DEB78A8319828A8159
:10380000882329F48CE00E941B1E89830AC08A81C8
:10381000813029F48EE00E941B1E898302C083E060
:10382000898389810F900F90CF91DF910895DF9365
:10383000CF9300D0CDB7DEB78A8319828A818823DF
:1038400029F48CE00E941B1E89830AC08A81813082
:1038500029F48DE00E941B1E898302C083E08983C6
:1038600089810F900F90CF91DF910895DF93CF93CF
:10387000CDB7DEB76E970FB6F894DEBF0FBECDBFE3
:103880008E8F1D8E83E061E040E00E94470A8D8F9D
:1038900083E062E040E00E94470A982F8D8D892BDB
:1038A0008D8F8E8D982F991F9927991F83E066E041
:1038B000492F0E94470A982F8D8D892B8D8F8E8DD1
:1038C0008295869586958370982F917083E065E048
:1038D000492F0E94470A982F8D8D892B8D8F8E8DB1
:1038E000829586958770982F917083E064E0492FC8
:1038F0000E94470A982F8D8D892B8D8F8E8D8295F2
:103900008F70982F917083E063E0492F0E94470ADF
:10391000982F8D8D892B8D8F83E062E041E00E948E
:10392000470A982F8D8D892B8D8F80E090E0A0EA3B
:10393000B1E4898F9A8FAB8FBC8F698D7A8D8B8D17
:103940009C8D20E030E04AE753E40E941F02DC0136
:10395000CB018D8B9E8BAF8BB88F6D897E898F89C4
:10396000988D20E030E040E85FE30E942504882342
:103970002CF481E090E09C8B8B8B3FC06D897E891D
:103980008F89988D20E03FEF4FE757E40E94C503F1
:1039900018164CF5698D7A8D8B8D9C8D20E030E06A
:1039A00040E251E40E941F02DC01CB01BC01CD01C9
:1039B0000E944900DC01CB019C8B8B8B0FC089E1FD
:1039C00090E09A8B898B89899A890197F1F79A8B74
:1039D000898B8B899C8901979C8B8B8B8B899C898C
:1039E000009769F714C06D897E898F89988D0E9430
:1039F0004900DC01CB019C8B8B8B8B899C89988B3C
:103A00008F878F8598890197F1F7988B8F8783E04F
:103A100062E040E00E94470A982F8D8D892B8D8FA0
:103A20008E8D869586958695982F917083E066E0B9
:103A3000492F0E94470A982F8D8D892B8D8F8E8D4F
:103A400086958695982F917083E065E0492F0E94B6
:103A5000470A982F8D8D892B8D8F8E8D8695982F67
:103A6000917083E064E0492F0E94470A982F8D8D62
:103A7000892B8D8F8E8D982F917083E063E0492F75
:103A80000E94470A982F8D8D892B8D8F83E062E0ED
:103A900041E00E94470A982F8D8D892B8D8F80E001
:103AA00090E0A0EAB1E48B879C87AD87BE876B85E9
:103AB0007C858D859E8520E030E04AE753E40E94B6
:103AC0001F02DC01CB018F839887A987BA876F819A
:103AD000788589859A8520E030E040E85FE30E94A0
:103AE000250488232CF481E090E09E838D833FC0E1
:103AF0006F81788589859A8520E03FEF4FE757E40D
:103B00000E94C50318164CF56B857C858D859E85B6
:103B100020E030E040E251E40E941F02DC01CB01D2
:103B2000BC01CD010E944900DC01CB019E838D8345
:103B30000FC089E190E09C838B838B819C810197EE
:103B4000F1F79C838B838D819E8101979E838D836A
:103B50008D819E81009769F714C06F817885898572
:103B60009A850E944900DC01CB019E838D838D8163
:103B70009E819A83898389819A810197F1F79A833B
:103B8000898383E062E040E00E94470A982F8D8D90
:103B9000892B8D8F8D8D6E960FB6F894DEBF0FBE7C
:103BA000CDBFCF91DF910895DF93CF930F92CDB723
:103BB000DEB7198283E060E041E00E94AA0D8983AC
:103BC00083E061E041E00E94AA0D982F8981892B52
:103BD000898383E062E041E00E94AA0D982F8981E9
:103BE000892B898383E063E041E00E94AA0D982F2E
:103BF0008981892B898383E064E041E00E94AA0DDA
:103C0000982F8981892B898383E065E041E00E94B8
:103C1000AA0D982F8981892B898383E066E041E092
:103C20000E94AA0D982F8981892B898389810F9001
:103C3000CF91DF910895DF93CF93CDB7DEB7609733
:103C40000FB6F894DEBF0FBECDBF888B1F8683E012
:103C500060E040E00E94470A8F8783E062E040E036
:103C60000E94470A982F8F85892B8F8788898832F1
:103C700009F0BEC08889982F991F9927991F83E062
:103C800066E0492F0E94470A982F8F85892B8F87DE
:103C900088898295869586958370982F917083E0A8
:103CA00065E0492F0E94470A982F8F85892B8F87BF
:103CB0008889829586958770982F917083E064E05B
:103CC000492F0E94470A982F8F85892B8F878889D3
:103CD00082958F70982F917083E063E0492F0E9446
:103CE000470A982F8F85892B8F8783E062E041E018
:103CF0000E94470A982F8F85892B8F8780E090E05C
:103D0000A0EAB1E48B879C87AD87BE876B857C85F5
:103D10008D859E8520E030E04AE753E40E941F0233
:103D2000DC01CB018F839887A987BA876F8178855B
:103D300089859A8520E030E040E85FE30E94250411
:103D400088232CF481E090E09E838D833FC06F81B7
:103D5000788589859A8520E03FEF4FE757E40E94F8
:103D6000C50318164CF56B857C858D859E8520E0F6
:103D700030E040E251E40E941F02DC01CB01BC01B3
:103D8000CD010E944900DC01CB019E838D830FC0D1
:103D900089E190E09C838B838B819C810197F1F773
:103DA0009C838B838D819E8101979E838D838D81E2
:103DB0009E81009769F714C06F81788589859A85FF
:103DC0000E944900DC01CB019E838D838D819E8101
:103DD0009A83898389819A810197F1F79A838983EC
:103DE00083E062E040E00E94470A9F85892B8F872D
:103DF00088890E94361C982F8F85892B8F878F8505
:103E000060960FB6F894DEBF0FBECDBFCF91DF91A5
:103E10000895DF93CF9300D0CDB7DEB78A831982A0
:103E200083E060E041E00E94470A89838A810E9422
:103E3000361C982F8981892B898389810F900F9057
:103E4000CF91DF910895DF93CF930F92CDB7DEB777
:103E50000E94D61F0F90CF91DF910895DF93CF93EB
:103E60000F92CDB7DEB719820E94D61F0E940D2097
:103E700089810F90CF91DF910895DF93CF93CDB7D4
:103E8000DEB72F970FB6F894DEBF0FBECDBF1F86EB
:103E900080E090E0AAE7B4E48B879C87AD87BE877B
:103EA0006B857C858D859E8520E030E04AE753E474
:103EB0000E941F02DC01CB018F839887A987BA87F4
:103EC0006F81788589859A8520E030E040E85FE35E
:103ED0000E94250488232CF481E090E09E838D834A
:103EE0003FC06F81788589859A8520E03FEF4FE755
:103EF00057E40E94C50318164CF56B857C858D85AB
:103F00009E8520E030E040E251E40E941F02DC0187
:103F1000CB01BC01CD010E944900DC01CB019E8395
:103F20008D830FC089E190E09C838B838B819C8182
:103F30000197F1F79C838B838D819E8101979E83EE
:103F40008D838D819E81009769F714C06F8178857C
:103F500089859A850E944900DC01CB019E838D836F
:103F60008D819E819A83898389819A810197F1F756
:103F70009A8389830E94D0090E94550F0E94EF11F5
:103F800081E00E943F140E9468120E948D140E94DA
:103F9000A61680E00E9438088F852F960FB6F894F9
:103FA000DEBF0FBECDBFCF91DF910895DF93CF93DA
:103FB0000F92CDB7DEB719828EE691E00E941F15F1
:103FC00085E791E00E941F158CE791E00E941F1584
:103FD00083E891E00E941F158AE891E00E941F1576
:103FE00081E991E00E941F1588E691E00E94BA12D3
:103FF0008BE691E00E94BA1280E00E9477088BE184
:1040000092E226EA31E0B9010E943B090E940D20AC
:1040100089810F90CF91DF910895DF93CF930F9215
:10402000CDB7DEB719828091A601893049F48EE6BA
:1040300091E00E94161685E791E00E9416167BC05B
:104040008091A601813049F48EE691E00E947616B7
:1040500085E791E00E9476166EC08091A6018230BD
:1040600049F48CE791E00E94161683E891E00E94E3
:10407000161661C08091A601833049F48CE791E067
:104080000E94761683E891E00E94761654C08091D3
:10409000A601843049F48AE891E00E94161681E96D
:1040A00091E00E94161647C08091A601853049F420
:1040B0008AE891E00E94761681E991E00E947616E6
:1040C0003AC08091A601863049F488E691E00E94CA
:1040D000C9138BE691E00E94C9132DC08091A601FF
:1040E000873049F488E691E00E9404148BE691E061
:1040F0000E94041420C08EE691E00E94761685E7A7
:1041000091E00E9476168CE791E00E94761683E893
:1041100091E00E9476168AE891E00E94761681E985
:1041200091E00E94761688E691E00E9404148BE6E6
:1041300091E00E94041489810F90CF91DF9108953E
:10414000DF93CF9300D0CDB7DEB78A8319828A81FF
:104150008E3140F08A818C3328F480E062E00E9446
:10416000F4080AC08A818C3338F08A81803520F4C3
:1041700080E063E00E94F40889810F900F90CF9156
:10418000DF910895DF93CF9300D00F92CDB7DEB7C4
:104190009B838A8319828A819B8122E081309207E6
:1041A00028F080E066E00E94F40804C080E067E048
:1041B0000E94F40889810F900F900F90CF91DF91AA
:1041C0000895DF93CF93CDB7DEB7A0970FB6F894DD
:1041D000DEBF0FBECDBF8E8F78A36F8F1D8E8E8DED
:1041E0008F3008F48FC08E8D8F3108F08BC08E8D8C
:1041F000823128F480E064E00E94F40888C08E8D4B
:104200008A3128F080E069E00E94F40880C080E0F4
:1042100065E00E94F40880E090E0AAEFB3E4898FA3
:104220009A8FAB8FBC8F698D7A8D8B8D9C8D20E0A2
:1042300030E04AE753E40E941F02DC01CB018D8B82
:104240009E8BAF8BB88F6D897E898F89988D20E08A
:1042500030E040E85FE30E94250488232CF481E0ED
:1042600090E09C8B8B8B3FC06D897E898F89988D68
:1042700020E03FEF4FE757E40E94C50318164CF5C6
:10428000698D7A8D8B8D9C8D20E030E040E251E489
:104290000E941F02DC01CB01BC01CD010E9449003C
:1042A000DC01CB019C8B8B8B0FC089E190E09A8B5A
:1042B000898B89899A890197F1F79A8B898B8B89E8
:1042C0009C8901979C8B8B8B8B899C89009769F7C4
:1042D00014C06D897E898F89988D0E944900DC0108
:1042E000CB019C8B8B8B8B899C89988B8F878F853F
:1042F00098890197F1F7988B8F8780E061E00E94A1
:10430000F40805C084E064E041E00E94470A8F8D14
:1043100098A18035910508F084C08F8D98A18D33C8
:10432000910528F080E069E00E94F4087AC080E0FE
:1043300065E00E94F40880E090E0AAEFB3E48B8788
:104340009C87AD87BE876B857C858D859E8520E0AB
:1043500030E04AE753E40E941F02DC01CB018F8367
:104360009887A987BA876F81788589859A8520E0A3
:1043700030E040E85FE30E94250488232CF481E0CC
:1043800090E09E838D833FC06F81788589859A8573
:1043900020E03FEF4FE757E40E94C50318164CF5A5
:1043A0006B857C858D859E8520E030E040E251E480
:1043B0000E941F02DC01CB01BC01CD010E9449001B
:1043C000DC01CB019E838D830FC089E190E09C834B
:1043D0008B838B819C810197F1F79C838B838D81EB
:1043E0009E8101979E838D838D819E81009769F7C1
:1043F00014C06F81788589859A850E944900DC0107
:10440000CB019E838D838D819E819A83898389814F
:104410009A810197F1F79A83898380E061E00E9495
:10442000F4088D8DA0960FB6F894DEBF0FBECDBFF9
:10443000CF91DF910895DF93CF93CDB7DEB7CF91C2
:10444000DF910895DF93CF93CDB7DEB70E94231F8E
:104450000E942E1FFDCF629FD001739FF001829FAB
:10446000E00DF11D649FE00DF11D929FF00D839F03
:10447000F00D749FF00D659FF00D9927729FB00DA0
:10448000E11DF91F639FB00DE11DF91FBD01CF01B3
:1044900011240895AA1BBB1B51E107C0AA1FBB1F13
:1044A000A617B70710F0A61BB70B881F991F5A95C0
:1044B000A9F780959095BC01CD010895A1E21A2E2F
:1044C000AA1BBB1BFD010DC0AA1FBB1FEE1FFF1FB8
:1044D000A217B307E407F50720F0A21BB30BE40B08
:1044E000F50B661F771F881F991F1A9469F760954F
:1044F0007095809590959B01AC01BD01CF01089509
:104500002F923F924F925F926F927F928F929F92E3
:10451000AF92BF92CF92DF92EF92FF920F931F93D1
:10452000CF93DF93CDB7DEB7CA1BDB0B0FB6F89482
:10453000DEBF0FBECDBF09942A88398848885F84C2
:104540006E847D848C849B84AA84B984C884DF8033
:10455000EE80FD800C811B81AA81B981CE0FD11D17
:104560000FB6F894DEBF0FBECDBFED010895F894ED
:02457000FFCF7B
:104572000000000000000000000102020303030328
:1045820004040404040404040505050505050505E1
:1045920005050505050505050606060606060606C1
:1045A20006060606060606060606060606060606A9
:1045B2000606060606060606070707070707070791
:1045C2000707070707070707070707070707070779
:1045D2000707070707070707070707070707070769
:1045E2000707070707070707070707070707070759
:1045F2000707070707070707080808080808080841
:104602000808080808080808080808080808080828
:104612000808080808080808080808080808080818
:104622000808080808080808080808080808080808
:1046320008080808080808080808080808080808F8
:1046420008080808080808080808080808080808E8
:1046520008080808080808080808080808080808D8
:1046620008080808080808080808080808080808C8
:1046720008080808080808080406030407030200DB
:1046820002010306010202020303070104000401FE
:1046920004040104020403040501030003010304EA
:0846A2000103020303030501FB
:00000001FF
